{
  "contractName": "Prueba",
  "abi": [
    {
      "inputs": [
        {
          "internalType": "uint256",
          "name": "_supply",
          "type": "uint256"
        }
      ],
      "stateMutability": "nonpayable",
      "type": "constructor"
    },
    {
      "inputs": [],
      "name": "getBalance",
      "outputs": [
        {
          "internalType": "uint256",
          "name": "",
          "type": "uint256"
        }
      ],
      "stateMutability": "view",
      "type": "function"
    },
    {
      "inputs": [],
      "name": "accountOwner",
      "outputs": [
        {
          "internalType": "address",
          "name": "",
          "type": "address"
        }
      ],
      "stateMutability": "view",
      "type": "function"
    },
    {
      "inputs": [
        {
          "internalType": "uint256",
          "name": "_amount",
          "type": "uint256"
        },
        {
          "internalType": "address",
          "name": "_to",
          "type": "address"
        }
      ],
      "name": "inicialDeploy",
      "outputs": [],
      "stateMutability": "nonpayable",
      "type": "function"
    },
    {
      "inputs": [
        {
          "internalType": "uint256",
          "name": "_amount",
          "type": "uint256"
        },
        {
          "internalType": "address",
          "name": "_to",
          "type": "address"
        }
      ],
      "name": "transferToken",
      "outputs": [],
      "stateMutability": "nonpayable",
      "type": "function"
    }
  ],
  "bytecode": "0x608060405234801561001057600080fd5b50604051610900380380610900833981810160405281019061003291906100fd565b33600160006101000a81548173ffffffffffffffffffffffffffffffffffffffff021916908373ffffffffffffffffffffffffffffffffffffffff1602179055508060008190555060005460026000600160009054906101000a900473ffffffffffffffffffffffffffffffffffffffff1673ffffffffffffffffffffffffffffffffffffffff1673ffffffffffffffffffffffffffffffffffffffff1681526020019081526020016000208190555050610147565b6000815190506100f781610130565b92915050565b60006020828403121561010f57600080fd5b600061011d848285016100e8565b91505092915050565b6000819050919050565b61013981610126565b811461014457600080fd5b50565b6107aa806101566000396000f3fe608060405234801561001057600080fd5b506004361061004c5760003560e01c806312065fe014610051578063674ddb531461006f57806370eccb641461008d578063bad42590146100a9575b600080fd5b6100596100c5565b60405161006691906105ad565b60405180910390f35b61007761010c565b6040516100849190610552565b60405180910390f35b6100a760048036038101906100a291906104b2565b610114565b005b6100c360048036038101906100be91906104b2565b610354565b005b6000600260003373ffffffffffffffffffffffffffffffffffffffff1673ffffffffffffffffffffffffffffffffffffffff16815260200190815260200160002054905090565b600033905090565b3373ffffffffffffffffffffffffffffffffffffffff16600160009054906101000a900473ffffffffffffffffffffffffffffffffffffffff1673ffffffffffffffffffffffffffffffffffffffff16146101a4576040517f08c379a000000000000000000000000000000000000000000000000000000000815260040161019b9061056d565b60405180910390fd5b8180600260003373ffffffffffffffffffffffffffffffffffffffff1673ffffffffffffffffffffffffffffffffffffffff168152602001908152602001600020541015610227576040517f08c379a000000000000000000000000000000000000000000000000000000000815260040161021e9061058d565b60405180910390fd5b8260026000600160009054906101000a900473ffffffffffffffffffffffffffffffffffffffff1673ffffffffffffffffffffffffffffffffffffffff1673ffffffffffffffffffffffffffffffffffffffff16815260200190815260200160002054610294919061062f565b60026000600160009054906101000a900473ffffffffffffffffffffffffffffffffffffffff1673ffffffffffffffffffffffffffffffffffffffff1673ffffffffffffffffffffffffffffffffffffffff1681526020019081526020016000208190555082600260008473ffffffffffffffffffffffffffffffffffffffff1673ffffffffffffffffffffffffffffffffffffffff168152602001908152602001600020600082825461034891906105d9565b92505081905550505050565b8180600260003373ffffffffffffffffffffffffffffffffffffffff1673ffffffffffffffffffffffffffffffffffffffff1681526020019081526020016000205410156103d7576040517f08c379a00000000000000000000000000000000000000000000000000000000081526004016103ce9061058d565b60405180910390fd5b82600260003373ffffffffffffffffffffffffffffffffffffffff1673ffffffffffffffffffffffffffffffffffffffff1681526020019081526020016000206000828254610426919061062f565b9250508190555082600260008473ffffffffffffffffffffffffffffffffffffffff1673ffffffffffffffffffffffffffffffffffffffff168152602001908152602001600020600082825461047c91906105d9565b92505081905550505050565b60008135905061049781610746565b92915050565b6000813590506104ac8161075d565b92915050565b600080604083850312156104c557600080fd5b60006104d38582860161049d565b92505060206104e485828601610488565b9150509250929050565b6104f781610663565b82525050565b600061050a6038836105c8565b9150610515826106ce565b604082019050919050565b600061052d6019836105c8565b91506105388261071d565b602082019050919050565b61054c81610695565b82525050565b600060208201905061056760008301846104ee565b92915050565b60006020820190508181036000830152610586816104fd565b9050919050565b600060208201905081810360008301526105a681610520565b9050919050565b60006020820190506105c26000830184610543565b92915050565b600082825260208201905092915050565b60006105e482610695565b91506105ef83610695565b9250827fffffffffffffffffffffffffffffffffffffffffffffffffffffffffffffffff038211156106245761062361069f565b5b828201905092915050565b600061063a82610695565b915061064583610695565b9250828210156106585761065761069f565b5b828203905092915050565b600061066e82610675565b9050919050565b600073ffffffffffffffffffffffffffffffffffffffff82169050919050565b6000819050919050565b7f4e487b7100000000000000000000000000000000000000000000000000000000600052601160045260246000fd5b7f7573746564206e6f207469656e65206175746f72697a6163696f6e207061726160008201527f207472616e736665726972206573746f7320666f6e646f730000000000000000602082015250565b7f6e6f207469656e652073616c646f20737566696369656e746500000000000000600082015250565b61074f81610663565b811461075a57600080fd5b50565b61076681610695565b811461077157600080fd5b5056fea26469706673582212207a5a3a1eac025c27b59ed343c9095a38d13595c6615759507735b641abcb846f64736f6c63430008030033",
  "immutableReferences": {},
  "source": "// SPDX-License-Identifier: GPL-3.0\n\npragma solidity ^0.8.3;\n\ncontract Prueba {\n    uint private supply;\n    address private owner;\n    mapping (address => uint) private balances;\n\nconstructor (uint _supply) {\n    owner = msg.sender;\n    supply = _supply;\n    balances[owner] = supply;\n}\n\n    function getBalance () public view returns (uint256){\n        return balances[msg.sender];\n    }\n\n    function accountOwner () public view returns (address){\n        return msg.sender;\n    }\n\n    function inicialDeploy(uint _amount, address _to) public onlyOwner haveEnough (_amount){\n       balances[owner] = balances[owner] - _amount;\n       balances[_to] += _amount;\n    }\n\n    function transferToken(uint _amount, address _to) public haveEnough(_amount) {\n        balances[msg.sender] -= _amount;\n        balances[_to] += _amount;\n    }\n\n\n    modifier haveEnough (uint _amount){\n        require(balances[msg.sender] >= _amount, \"no tiene saldo suficiente\");\n        _;\n    }\n\n    modifier onlyOwner(){\n        require (owner == msg.sender, \"usted no tiene autorizacion para transferir estos fondos\");\n        _;\n    }\n\n\n\n\n\n\n\n\n\n\n\n\n\n\n}",
  "sourcePath": "/Users/gonzalorivas/Documents/Carrera Blockchain/7- Solidity/Modulo 3/a Unidad3/payable/contracts/eCoin.sol",
  "compiler": {
    "name": "solc",
    "version": "0.8.3+commit.8d00100c.Emscripten.clang"
  },
  "schemaVersion": "3.4.3",
  "updatedAt": "2021-12-23T13:54:53.176Z",
  "devdoc": {
    "kind": "dev",
    "methods": {},
    "version": 1
  },
  "userdoc": {
    "kind": "user",
    "methods": {},
    "version": 1
  }
}